:020000040C00EE
:100000000008002001020008B7020008C70200082B
:10001000D7020008E7020008F7020008000000000D
:1000200000000000000000000000000007030008BE
:10003000170300080000000027030008370300082A
:100040004703000857030008670300087703000808
:100050008703000897030008A7030008B7030008F8
:10006000C7030008000000000000000000000000BE
:10007000D703000800000000E7030008F7030008AA
:1000800007040008170400082704000837040008C4
:1000900047040008570400086704000877040008B4
:1000A0008704000897040008A7040008B7040008A4
:1000B000C7040008D7040008E7040008F704000894
:1000C0000705000817050008270500083705000880
:1000D0004705000857050008670500087705000870
:1000E0008705000897050008A7050008B705000860
:1000F000C7050008D7050008E7050008F705000850
:100100000706000815060008230600083106000847
:100110003F0600084D0600085B0600086906000857
:10012000770600088506000893060008A106000867
:10013000AF060008BD060008CB060008D906000877
:10014000E7060008F5060008030700081107000885
:100150001F0700082D0700083B0700084907000893
:10016000000000000000000000000000000000008F
:100170005707000865070008730700088107000893
:100180008F0700089D070008AB070008B9070008A3
:10019000C7070008D5070008E3070008F1070008B3
:1001A000FF0700080D0800081B08000829080008C0
:1001B00037080008450800085308000861080008CF
:1001C0006F0800087D0800088B08000899080008DF
:1001D000A7080008B5080008C308000800000000D0
:1001E000D1080008DF080008ED080008FB08000837
:1001F00009090008000000001709000800000000BD
:10020000DFF80CD0034880470348804700F006B869
:1002100000080020E10A0008B102000819481A4944
:100220001A4A002A00F00D804FEA920203680B6020
:10023000013A00F0068000F1040001F10401FFF72B
:10024000F5BF13481349002900F00C804FEA9101D3
:100250004FF000020260013900F0048000F1040058
:10026000FFF7F8BF0C480D4908600D4880470D485E
:100270008047DFF834D04FF000004FF00001DFF886
:100280002CF000003020000C2008002004000000AA
:1002900000080020200000000000000808ED00E039
:1002A0007D0B0008791F0008000800205518000881
:1002B00000BF7047FEE7DFF8700600B581B08047E9
:1002C00001B000BDFEE7DFF8640600B581B08047ED
:1002D00001B000BDFEE7DFF8580600B581B08047E9
:1002E00001B000BDFEE7DFF84C0600B581B08047E5
:1002F00001B000BDFEE7DFF8400600B581B08047E1
:1003000001B000BDFEE7DFF8340600B581B08047DC
:1003100001B000BDFEE7DFF8280600B581B08047D8
:1003200001B000BDFEE7DFF81C0600B581B08047D4
:1003300001B000BDFEE7DFF8100600B581B08047D0
:1003400001B000BDFEE7DFF8040600B581B08047CC
:1003500001B000BDFEE7DFF8F80500B581B08047C9
:1003600001B000BDFEE7DFF8EC0500B581B08047C5
:1003700001B000BDFEE7DFF8E00500B581B08047C1
:1003800001B000BDFEE7DFF8D40500B581B08047BD
:1003900001B000BDFEE7DFF8C80500B581B08047B9
:1003A00001B000BDFEE7DFF8BC0500B581B08047B5
:1003B00001B000BDFEE7DFF8B00500B581B08047B1
:1003C00001B000BDFEE7DFF8A40500B581B08047AD
:1003D00001B000BDFEE7DFF8980500B581B08047A9
:1003E00001B000BDFEE7DFF88C0500B581B08047A5
:1003F00001B000BDFEE7DFF8800500B581B08047A1
:1004000001B000BDFEE7DFF8740500B581B080479C
:1004100001B000BDFEE7DFF8680500B581B0804798
:1004200001B000BDFEE7DFF85C0500B581B0804794
:1004300001B000BDFEE7DFF8500500B581B0804790
:1004400001B000BDFEE7DFF8440500B581B080478C
:1004500001B000BDFEE7DFF8380500B581B0804788
:1004600001B000BDFEE7DFF82C0500B581B0804784
:1004700001B000BDFEE7DFF8200500B581B0804780
:1004800001B000BDFEE7DFF8140500B581B080477C
:1004900001B000BDFEE7DFF8080500B581B0804778
:1004A00001B000BDFEE7DFF8FC0400B581B0804775
:1004B00001B000BDFEE7DFF8F00400B581B0804771
:1004C00001B000BDFEE7DFF8E40400B581B080476D
:1004D00001B000BDFEE7DFF8D80400B581B0804769
:1004E00001B000BDFEE7DFF8CC0400B581B0804765
:1004F00001B000BDFEE7DFF8C00400B581B0804761
:1005000001B000BDFEE7DFF8B40400B581B080475C
:1005100001B000BDFEE7DFF8A80400B581B0804758
:1005200001B000BDFEE7DFF89C0400B581B0804754
:1005300001B000BDFEE7DFF8900400B581B0804750
:1005400001B000BDFEE7DFF8840400B581B080474C
:1005500001B000BDFEE7DFF8780400B581B0804748
:1005600001B000BDFEE7DFF86C0400B581B0804744
:1005700001B000BDFEE7DFF8600400B581B0804740
:1005800001B000BDFEE7DFF8540400B581B080473C
:1005900001B000BDFEE7DFF8480400B581B0804738
:1005A00001B000BDFEE7DFF83C0400B581B0804734
:1005B00001B000BDFEE7DFF8300400B581B0804730
:1005C00001B000BDFEE7DFF8240400B581B080472C
:1005D00001B000BDFEE7DFF8180400B581B0804728
:1005E00001B000BDFEE7DFF80C0400B581B0804724
:1005F00001B000BDFEE7DFF8000400B581B0804720
:1006000001B000BDFEE7FD4800B581B0804701B0F4
:1006100000BDFEE7FA4800B581B0804701B000BDDB
:10062000FEE7F84800B581B0804701B000BDFEE7A5
:10063000F54800B581B0804701B000BDFEE7F34842
:1006400000B581B0804701B000BDFEE7F04800B5BD
:1006500081B0804701B000BDFEE7EE4800B581B033
:10066000804701B000BDFEE7EB4800B581B0804790
:1006700001B000BDFEE7E94800B581B0804701B098
:1006800000BDFEE7E64800B581B0804701B000BD7F
:10069000FEE7E44800B581B0804701B000BDFEE749
:1006A000E14800B581B0804701B000BDFEE7DF48FA
:1006B00000B581B0804701B000BDFEE7DC4800B561
:1006C00081B0804701B000BDFEE7DA4800B581B0D7
:1006D000804701B000BDFEE7D74800B581B0804734
:1006E00001B000BDFEE7D54800B581B0804701B03C
:1006F00000BDFEE7D24800B581B0804701B000BD23
:10070000FEE7D04800B581B0804701B000BDFEE7EC
:10071000CD4800B581B0804701B000BDFEE7CB48B1
:1007200000B581B0804701B000BDFEE7C84800B504
:1007300081B0804701B000BDFEE7C64800B581B07A
:10074000804701B000BDFEE7C34800B581B08047D7
:1007500001B000BDFEE7C14800B581B0804701B0DF
:1007600000BDFEE7BE4800B581B0804701B000BDC6
:10077000FEE7BC4800B581B0804701B000BDFEE790
:10078000B94800B581B0804701B000BDFEE7B74869
:1007900000B581B0804701B000BDFEE7B44800B5A8
:1007A00081B0804701B000BDFEE7B24800B581B01E
:1007B000804701B000BDFEE7AF4800B581B080477B
:1007C00001B000BDFEE7AD4800B581B0804701B083
:1007D00000BDFEE7AA4800B581B0804701B000BD6A
:1007E000FEE7A84800B581B0804701B000BDFEE734
:1007F000A54800B581B0804701B000BDFEE7A34821
:1008000000B581B0804701B000BDFEE7A04800B54B
:1008100081B0804701B000BDFEE79E4800B581B0C1
:10082000804701B000BDFEE79B4800B581B080471E
:1008300001B000BDFEE7994800B581B0804701B026
:1008400000BDFEE7964800B581B0804701B000BD0D
:10085000FEE7944800B581B0804701B000BDFEE7D7
:10086000914800B581B0804701B000BDFEE78F48D8
:1008700000B581B0804701B000BDFEE78C4800B5EF
:1008800081B0804701B000BDFEE78A4800B581B065
:10089000804701B000BDFEE7874800B581B08047C2
:1008A00001B000BDFEE7854800B581B0804701B0CA
:1008B00000BDFEE7824800B581B0804701B000BDB1
:1008C000FEE7804800B581B0804701B000BDFEE77B
:1008D0007D4800B581B0804701B000BDFEE77B4890
:1008E00000B581B0804701B000BDFEE7784800B593
:1008F00081B0804701B000BDFEE7764800B581B009
:10090000804701B000BDFEE7734800B581B0804765
:1009100001B000BDFEE7714800B581B0804701B06D
:1009200000BD4FF001007047B5020008C502000885
:10093000D5020008E5020008F502000805030008DA
:1009400015030008250300083503000845030008C7
:1009500055030008650300087503000885030008B7
:1009600095030008A5030008B5030008C5030008A7
:10097000D5030008E5030008F50300080504000896
:100980001504000825040008350400084504000883
:100990005504000865040008750400088504000873
:1009A00095040008A5040008B5040008C504000863
:1009B000D5040008E5040008F50400080505000852
:1009C000150500082505000835050008450500083F
:1009D000550500086505000875050008850500082F
:1009E00095050008A5050008B5050008C50500081F
:1009F000D5050008E5050008F5050008050600080E
:100A000013060008210600082F0600083D0600080E
:100A10004B0600085906000867060008750600081E
:100A200083060008910600089F060008AD0600082E
:100A3000BB060008C9060008D7060008E50600083E
:100A4000F3060008010700080F0700081D0700084B
:100A50002B0700083907000847070008550700085A
:100A600063070008710700087F0700088D0700086A
:100A70009B070008A9070008B7070008C50700087A
:100A8000D3070008E1070008EF070008FD0700088A
:100A90000B08000819080008270800083508000896
:100AA00043080008510800085F0800086D080008A6
:100AB0007B0800088908000897080008A5080008B6
:100AC000B3080008C1080008CF080008DD080008C6
:100AD000EB080008F90800080709000815090008D4
:100AE00080B582B000AF4FF46D43CEF200034FF4F7
:100AF0006D42CEF20002D2F8882042F47002C3F8B0
:100B000088204FF46D43CEF200034FF46D42CEF2D5
:100B10000002526922F008025A614FF40043C5F204
:100B200000034FF40042C5F20002526822F00102B5
:100B30005A604FF48053C5F6000303F5805303F168
:100B400014031B687B607B6823F00F037B607B686A
:100B500043F003037B604FF48053C5F600037A68CB
:100B600003F5805303F114031A6000F0ABF800F0B2
:100B700005F807F10807BD4680BD00BF80B485B009
:100B800000AF4FF48C43C5F20003DB68B3F5803F40
:100B900040F0898044F21073C5F200031B6803F033
:100BA0000403002B00F0888044F21073C5F20003A8
:100BB0009B6803F070634FEA136303F10103FB606A
:100BC00044F21073C5F200039B6803F4FE434FEA3E
:100BD000132303F10103BB6044F21073C5F2000359
:100BE0009B6803F4FE034FEA134303F101037B60A8
:100BF00044F21073C5F20003DB6803F00103002B1D
:100C000028D04FF45853C0F26E13FA68B3FBF2F3D6
:100C1000BA6802FB03F33B603A687B68B2FBF3F20D
:100C200040F62003C2F200031A6040F62003C2F22D
:100C300000031A684FF48C43C5F20003DB68DBB293
:100C400003F10103B2FBF3F240F62003C2F200030A
:100C50001A6031E04FF4D853C0F2B703FA68B3FB1F
:100C6000F2F3BA6802FB03F33B603A687B68B2FBBD
:100C7000F3F240F62003C2F200031A6040F62003AC
:100C8000C2F200031A684FF48C43C5F20003DB681C
:100C9000DBB203F10103B2FBF3F240F62003C2F230
:100CA00000031A6008E040F62003C2F200034FF48C
:100CB0005852C0F26E121A6007F11407BD4680BC8C
:100CC000704700BF80B582B000AFFFF72AFE034631
:100CD000002B00F0558244F21073C5F200035A68ED
:100CE0004FF00203C0F201031340002B0DD044F279
:100CF0001073C5F2000344F21072C5F2000252688C
:100D000022F4803222F002025A604FF48E43C5F280
:100D100000035B6803F03003002B72D04FF48E4366
:100D2000C5F200034FF48E42C5F20002526822F071
:100D3000F0025A604FF48E43C5F200034FF48E4226
:100D4000C5F20002526842F400325A6044F2107355
:100D5000C5F2000344F21072C5F20002D26822F01C
:100D60000102DA6044F21073C5F2000344F210721B
:100D7000C5F20002526822F400325A604EF21003AB
:100D8000CEF2000344F6A332C0F24C025A604EF297
:100D90001003CEF200034FF000029A604EF21003EF
:100DA000CEF200034FF005021A6044F21073C5F250
:100DB00000031B6803F46073B3F5607F08D04EF244
:100DC0001003CEF200039A6840F2F3139A42ECD873
:100DD0004EF21003CEF200034EF21002CEF20002E9
:100DE000126822F001021A6044F21073C5F2000387
:100DF0001B6803F46073B3F5607F02D04FF000030B
:100E0000C0E144F21073C5F200031B6803F0040351
:100E1000002B40F0B5814FF48C43C5F20003DB6832
:100E200003F48033002B0BD04FF48C43C5F2000346
:100E30004FF48C42C5F20002D26822F48032DA60AC
:100E40004FF46053C1F69C437B607A6849F6817326
:100E5000C1F25E63A3FB02134FEA535303F1FF3366
:100E60003B6044F21073C5F2000344F21072C5F205
:100E70000002526842F001025A6044F21073C5F257
:100E8000000344F21072C5F20002526842F01002F0
:100E90005A6044F21072C5F200023B684FEA034107
:100EA00044F60173C0F200130B43936044F21073D5
:100EB000C5F2000344F21072C5F20002526842F01B
:100EC00040025A6044F21073C5F2000344F21072FB
:100ED000C5F20002526822F010025A6044F2107308
:100EE000C5F2000344F21072C5F20002526842F4E7
:100EF00080225A604EF21003CEF2000344F6A33271
:100F0000C0F24C025A604EF21003CEF200034FF0D2
:100F100000029A604EF21003CEF200034FF0050279
:100F20001A6000BF44F21073C5F200031B6803F09F
:100F30000403002B08D14EF21003CEF200039A688E
:100F400040F2F3139A42EDD84EF21003CEF20003B2
:100F50004EF21002CEF20002126822F001021A6074
:100F600044F21073C5F200031B6803F00403002B66
:100F70004ED044F21073C5F2000344F21072C5F271
:100F80000002526822F001025A604FF48C43C5F20D
:100F900000034FF000021A614FF48C43C5F20003C6
:100FA0004FF000025A614FF48C43C5F200034FF03A
:100FB00000021A624FF48C43C5F200034FF48C42D6
:100FC000C5F20002D26842F48032DA6044F2107353
:100FD000C5F2000344F21072C5F20002526822F01A
:100FE00040025A604EF21003CEF2000340F2455226
:100FF0005A604EF21003CEF200034FF000029A60E6
:101000004EF21003CEF200034FF005021A6002E028
:101010004FF00003B6E04EF21003CEF200039B68DF
:10102000632BF8D84EF21003CEF200034EF21002FA
:10103000CEF20002126822F001021A604FF46053EF
:10104000C1F69C437B607B684FEA132245F2C7439D
:10105000C0F21E13A3FB02134FEA932303F1FF33E5
:101060003B6044F21072C5F200023B684FEA034154
:1010700044F60173C0F200130B4393604EF2100369
:10108000CEF2000340F61B425A604EF21003CEF23D
:1010900000034FF000029A604EF21003CEF20003FC
:1010A0004FF005021A6000BF4EF21003CEF20003AB
:1010B0009B68632BF8D84EF21003CEF200034EF279
:1010C0001002CEF20002126822F001021A604FF400
:1010D0006053C1F69C437B607B684FEAD3124EF2AB
:1010E0002F33C0F2BE03A3FB02134FEAD32303F155
:1010F000FF333B6044F21072C5F200023B684FEAD6
:10110000034144F60173C0F200130B4393604EF2A7
:101110001003CEF2000341F223325A604EF2100364
:10112000CEF200034FF000029A604EF21003CEF2AE
:1011300000034FF005021A6000BF4EF21003CEF21A
:1011400000039B68632BF8D84EF21003CEF2000325
:101150004EF21002CEF20002126822F001021A6072
:1011600044F21073C5F2000344F60172C0F2031298
:101170009A6044F26013C5F200034FF00502DA6092
:101180004FF00103184607F10807BD4680BD00BFB8
:1011900080B483B000AF4FF00E037B6003E07B6848
:1011A00003F1FF337B607B68002BF8D107F10C075C
:1011B000BD4680BC704700BF80B400AF42F2280338
:1011C000C0F600035B685A6A42F22803C0F60003C7
:1011D0005B7822FA03F303F0010240F60403C2F243
:1011E00000031A6040F60403C2F200031B681846AD
:1011F000BD4680BC704700BF80B500AF42F22803F7
:10120000C0F600035A6842F22803C0F600035B7878
:101210004FF0010101FA03F3536042F22003C0F6DC
:1012200000035A6842F22003C0F600035B784FF0D7
:10123000010101FA03F35360FFF7AAFFFFF7A8FFCC
:10124000FFF7BAFF0346002B02D14FF000032DE059
:1012500042F22803C0F600035A6842F22803C0F69F
:1012600000035B784FF4803101FA03F35360FFF71A
:101270008FFFFFF7A1FF0346002B02D04FF00003C2
:1012800014E042F22803C0F600035A6842F2280331
:10129000C0F600035B784FF4803101FA03F353602A
:1012A000FFF776FFFFF774FF4FF00103184680BD8C
:1012B00080B500AF42F22003C0F600035A6842F244
:1012C0002003C0F600035B784FF4803101FA03F38A
:1012D0005360FFF75DFF42F22803C0F600035A682F
:1012E00042F22803C0F600035B784FF4803101FA24
:1012F00003F35360FFF74CFF42F22003C0F60003F4
:101300005A6842F22003C0F600035B784FF00101F7
:1013100001FA03F35360FFF73BFF42F22803C0F6E4
:1013200000035A6842F22803C0F600035B784FF0CE
:10133000010101FA03F35360FFF72AFF80BD00BFEC
:1013400080B500AF42F22003C0F600035A6842F2B3
:101350002003C0F600035B784FF4803101FA03F3F9
:101360005360FFF715FF42F22803C0F600035A68E6
:1013700042F22803C0F600035B784FF4803101FA93
:1013800003F35360FFF704FF42F22003C0F60003AB
:101390005A6842F22003C0F600035B784FF0010167
:1013A00001FA03F35360FFF7F3FE42F22003C0F6A5
:1013B00000035A6842F22003C0F600035B784FF442
:1013C000803101FA03F35360FFF7E2FE80BD00BFF6
:1013D00080B500AF42F22003C0F600035A6842F223
:1013E0002003C0F600035B784FF4803101FA03F369
:1013F0005360FFF7CDFE42F22803C0F600035A689F
:1014000042F22803C0F600035B784FF0010101FAB5
:1014100003F35360FFF7BCFE42F22003C0F6000363
:101420005A6842F22003C0F600035B784FF00101D6
:1014300001FA03F35360FFF7ABFE42F22003C0F65C
:1014400000035A6842F22003C0F600035B784FF4B1
:10145000803101FA03F35360FFF79AFE80BD00BFAD
:1014600080B500AF42F22003C0F600035A6842F292
:101470002003C0F600035B784FF4803101FA03F3D8
:101480005360FFF785FEFFF783FE42F22003C0F6AC
:1014900000035A6842F22003C0F600035B784FF065
:1014A000010101FA03F35360FFF772FEFFF770FECC
:1014B000FFF76EFEFFF76CFEFFF77EFE0346002B84
:1014C0001DD042F22003C0F600035A6842F2200306
:1014D000C0F600035B784FF4803101FA03F35360E8
:1014E000FFF756FE40F60403C2F200031A6840F606
:1014F0000803C2F200031A604FF0000312E042F248
:101500002003C0F600035A6842F22003C0F600032D
:101510005B784FF4803101FA03F35360FFF738FE34
:101520004FF00103184680BD80B584B000AF03467C
:10153000FB714FF00803FB734AE042F22003C0F650
:1015400000035A6842F22003C0F600035B784FF4B0
:10155000803101FA03F35360FFF71AFEFB795BB2A7
:10156000002B0FDA42F22803C0F600035A6842F259
:101570002803C0F600035B784FF0010101FA03F382
:1015800053600EE042F22803C0F600035A6842F2AC
:101590002803C0F600035B784FF4803101FA03F3AF
:1015A0005360FB794FEA4303FB71FFF7F1FD42F211
:1015B0002003C0F600035A6842F22003C0F600037D
:1015C0005B784FF0010101FA03F35360FFF7E0FD90
:1015D000FB7B002B0CBF00230123DBB2FA7B02F163
:1015E000FF32FA73002BA8D142F22003C0F60003A9
:1015F0005A6842F22003C0F600035B784FF4803152
:1016000001FA03F3536007F11007BD4680BD00BF28
:1016100080B582B000AF4FF00803FB714FF00003BC
:10162000BB7142F22803C0F600035A6842F2280355
:10163000C0F600035B784FF0010101FA03F3536039
:1016400036E0BB794FEA4303BB7142F22003C0F698
:1016500000035A6842F22003C0F600035B784FF49F
:10166000803101FA03F35360FFF792FD42F2200349
:10167000C0F600035A6842F22003C0F600035B780C
:101680004FF0010101FA03F35360FFF781FDFFF70B
:1016900093FD0346002B03D0BB7943F00103BB71DC
:1016A00042F22800C0F600004FF0180100F04CFB99
:1016B000FB79002B0CBF00230123DBB2FA7902F186
:1016C000FF32FA71002BBCD142F22003C0F60003B6
:1016D0005A6842F22003C0F600035B784FF4803171
:1016E00001FA03F35360BB79184607F10807BD46BA
:1016F00080BD00BF80B584B000AF3B600346FB7186
:101700000B46BB7113467B71FFF776FD0346002B3A
:1017100002D14FF0000337E0FB794FEA4303DBB21D
:101720001846FFF701FFFFF79BFE0346002B04D18D
:10173000FFF7BEFD4FF0000326E0BB791846FFF728
:10174000F3FEFFF78DFE4FF00003FB6014E0FB6833
:101750003A68D3181B781846FFF7E6FEFFF780FEBD
:101760000346002B04D1FFF7A3FD4FF000030BE06D
:10177000FB6803F10103FB607A79FB689A42E6DCBF
:10178000FFF796FD4FF00103184607F11007BD461D
:1017900080BD00BF80B582B000AF3B600346FB71E7
:1017A0000B46BB7113467B71FFF726FD4FF000031C
:1017B000184607F10807BD4680BD00BF80B582B05E
:1017C00000AF3B600346FB710B46BB7113467B7158
:1017D000F979BA797B79084611461A463B68FFF7D2
:1017E00089FF0346002B02D04FF0010301E04FF0C8
:1017F00000035BB2184607F10807BD4680BD00BF75
:1018000080B582B000AF3B600346FB710B46BB71F5
:1018100013467B71F979BA797B79084611461A46E5
:101820003B68FFF7B7FF0346002B02D04FF00103E0
:1018300001E04FF000035BB2184607F10807BD4610
:1018400080BD00BF80B400AF4FF000031846BD4616
:1018500080BC704780B582B000AF42F22000C0F675
:1018600000004FF0180100F06FFA42F22800C0F6B5
:1018700000004FF0180100F067FA42F21C03C0F6B6
:10188000000307F104021B88138000F043FB07F1FB
:1018900004034FF068004FF06B014FF00102FFF7B7
:1018A0008DFF03461A4640F60C03C2F200031A608D
:1018B00042F22003C0F600035B685A6A42F220033A
:1018C000C0F600035B7822FA03F303F0010240F64E
:1018D0001C03C2F200031A60D9E700BF80B485B0D0
:1018E00000AFF860B9607A604FF0FF33184607F137
:1018F0001407BD4680BC704780B485B000AFF86067
:10190000B9607A604FF0FF33184607F11407BD46FF
:1019100080BC704780B485B000AFF860B9607A6071
:101920004FF00003184607F11407BD4680BC70470E
:1019300080B485B000AFF860B9607A604FF0FF33D3
:10194000184607F11407BD4680BC704780B400AF4D
:101950004FF0FF331846BD4680BC704780B483B05B
:1019600000AF786039603B68002B02D04FF0FF3346
:1019700001E06FF00103184607F10C07BD4680BC7B
:10198000704700BF80B483B000AF786039607A6878
:101990003B689A4202D14FF0FF3301E06FF0010340
:1019A000184607F10C07BD4680BC704780B483B071
:1019B00000AF78604FF0FF33184607F10C07BD46C3
:1019C00080BC704780B487B000AF78604FF2D873A6
:1019D000C0F200037B6140F61403C2F200031B68EF
:1019E000002B14D140F61403C2F2000340F6280283
:1019F000C2F200021A6040F61403C2F200031A6831
:101A00007B69D21840F61803C2F200031A6040F650
:101A10001403C2F200031B683B6140F61403C2F2D8
:101A200000031B681A467B68D31803F1070323F0F1
:101A30000703FB6040F61803C2F200031B68FA6854
:101A40009A4202D34FF0000306E040F61403C2F2BC
:101A50000003FA681A603B69184607F11C07BD4687
:101A600080BC704780B483B000AF78604FF0FF3324
:101A7000184607F10C07BD4680BC704780B483B0A0
:101A800000AF78604FF0FF33184607F10C07BD46F2
:101A900080BC704780B483B000AF786039604FF08D
:101AA000FF33184607F10C07BD4680BC704700BFE6
:101AB00080B400AF4FF0FF331846BD4680BC70477E
:101AC00080B400AF4FF0FF331846BD4680BC70476E
:101AD00080B483B000AF7860FEE700BF80B400AF91
:101AE000BD4680BC704700BF80B483B000AF786053
:101AF0004FF0FF33184607F10C07BD4680BC704716
:101B000080B400AF42F22003C0F600035B684FF0E0
:101B100000025A6042F22003C0F600035A6842F203
:101B20002003C0F600035B681B6C23F0E0631364C2
:101B300042F22003C0F600035A6842F22003C0F6C6
:101B400000035B681B6C136442F22003C0F60003C1
:101B50005A6842F22003C0F600035B685B6943F4F5
:101B60008003536142F22803C0F600035B684FF024
:101B700000025A6042F22803C0F600035A6842F29B
:101B80002803C0F600035B685B6C23F00703536413
:101B900042F22803C0F600035A6842F22803C0F656
:101BA00000035B685B6C536442F22803C0F60003D9
:101BB0005A6842F22803C0F600035B689B6943F051
:101BC00040039361BD4680BC704700BF80B485B0C0
:101BD00000AF78600B46FB707B685B78FB73FB7B28
:101BE000032B23D87B685B687A6852681169FA7B9B
:101BF0004FEAC20202F103024FF01F0000FA02F2A4
:101C00006FEA02020A401A617B685B687A68526870
:101C10001169FA7802F01F00FA7B4FEAC20202F162
:101C2000030200FA02F20A431A6188E0FB7B032BED
:101C30002AD9FB7B072B27D8FB7BA3F10403FB737B
:101C40007B685B687A6852685169FA7B4FEAC20226
:101C500002F103024FF01F0000FA02F26FEA0202E3
:101C60000A405A617B685B687A6852685169FA7801
:101C700002F01F00FA7B4FEAC20202F1030200FAEF
:101C800002F20A435A615AE0FB7B072B2AD9FB7BFD
:101C90000B2B27D8FB7BA3F10803FB737B685B68E6
:101CA0007A6852689169FA7B4FEAC20202F1030234
:101CB0004FF01F0000FA02F26FEA02020A409A6136
:101CC0007B685B687A6852689169FA7802F01F0055
:101CD000FA7B4FEAC20202F1030200FA02F20A435F
:101CE0009A612CE0FB7B0B2B29D9FB7B0F2B26D891
:101CF000FB7BA3F10C03FB737B685B687A6852681B
:101D0000D169FA7B4FEAC20202F103024FF01F00D1
:101D100000FA02F26FEA02020A40DA617B685B684D
:101D20007A685268D169FA7802F01F00FA7B4FEAAC
:101D3000C20202F1030200FA02F20A43DA6107F179
:101D40001407BD4680BC704780B485B000AF786092
:101D50000B46FB707B685B78FB73FB7B032B23D804
:101D60007B685B687A6852681169FA7B4FEAC20245
:101D700002F103024FF01F0000FA02F26FEA0202C2
:101D80000A401A617B685B687A6852681169FA7860
:101D900002F01F00FA7B4FEAC20202F1030200FACE
:101DA00002F20A431A6188E0FB7B032B2AD9FB7BF2
:101DB000072B27D8FB7BA3F10403FB737B685B68CD
:101DC0007A6852685169FA7B4FEAC20202F1030253
:101DD0004FF01F0000FA02F26FEA02020A405A6155
:101DE0007B685B687A6852685169FA7802F01F0074
:101DF000FA7B4FEAC20202F1030200FA02F20A433E
:101E00005A615AE0FB7B072B2AD9FB7B0B2B27D887
:101E1000FB7BA3F10803FB737B685B687A685268FD
:101E20009169FA7B4FEAC20202F103024FF01F00F0
:101E300000FA02F26FEA02020A409A617B685B686C
:101E40007A6852689169FA7802F01F00FA7B4FEACB
:101E5000C20202F1030200FA02F20A439A612CE084
:101E6000FB7B0B2B29D9FB7B0F2B26D8FB7BA3F10C
:101E70000C03FB737B685B687A685268D169FA7BF4
:101E80004FEAC20202F103024FF01F0000FA02F211
:101E90006FEA02020A40DA617B685B687A6852681E
:101EA000D169FA7802F01F00FA7B4FEAC20202F110
:101EB000030200FA02F20A43DA6107F11407BD4691
:101EC00080BC704780B485B000AF78607B6803F059
:101ED0000703FB604FF46D43CEF20003DB68BB6089
:101EE000BA684FF6FF031340BB60FB684FEA03225A
:101EF000BB68134343F0BF6343F40033BB604FF44C
:101F00006D43CEF20003BA68DA6007F11407BD46EC
:101F100080BC704780B500AF4FF00100FFF7D2FFE3
:101F200000F024F8FFF7ECFD00F002F880BD00BFE0
:101F300080B400AF4FF40143C4F602034FF40142F2
:101F4000C4F60202526942F400025A614FF401439E
:101F5000C4F602034FF40142C4F60202926942F051
:101F600080029A61BD4680BC704700BF80B400AF5C
:101F7000BD4680BC704700BFF8B5204F204C381BD1
:101F8000871017D07A1E2368012502F001069847B2
:101F9000AF420FD02EB154F8041F02258847AF423C
:101FA00008D0606880470235A268261D9047083433
:101FB000AF42F6D1134F144CFFF790FD3B1B9F101F
:101FC00018D07D1E216805F0010601258847AF4223
:101FD00011D02EB154F8040F02258047AF420BD028
:101FE000626890470235A368261D98470834AF42BF
:101FF000F6D1F8BDF8BDF8BDF8BD00BF0C20000853
:0C2000000C2000080C2000080C20000838
:10200C00F4E1FF7F0100000008E2FF7F0100000007
:10201C008045000001060000008102480108000014
:04202C0000810248E5
:04203000000E270770
:0400000508000201EC
:00000001FF
